:10000000B4C00000D1C00000CFC00000CDC00000CF
:10001000CBC00000C9C00000C7C00000C5C00000C0
:10002000C3C00000C1C00000BFC00000BDC00000D0
:10003000BBC00000DEC00000B7C00000B5C00000BB
:10004000B3C00000B1C00000AFC00000ADC00000F0
:10005000ABC00000A9C00000A7C00000A5C0000000
:10006000A3C00000A1C000009FC000009DC0000010
:100070009BC0000099C0000097C0000095C0000020
:1000800093C0000091C000008FC00000EB15F01578
:10009000F715FD1504160A16111617161E16241646
:1000A0002B16311638165A16611667166E16741608
:1000B0007B16811688168E16931698169C16CE16E9
:1000C000D2161217161757175B176017C4170718A1
:1000D0000718071807180718071807180718071828
:1000E0000718071807180718071807180718071818
:1000F0000718071807180718071807180718071808
:1001000007180718071807180718071807180718F7
:1001100007180318071807180718071807180718EB
:10012000FB1707180718071807180718FF17C7172E
:10013000CB17CF17D317D717DB17DF17E317E7173F
:100140000718071807180718071807180718EB17D4
:10015000EF17F317F717891A951AB31A271BD61A30
:10016000EB1AF11AFD1A2A1B2A1B11241FBECFEF0E
:10017000D0E4DEBFCDBF15E0A0E0B1E0E8E2FBE3F4
:1001800000E00BBF02C007900D92A836B107D9F767
:1001900027E0A8E6B5E001C01D92A237B207E1F75B
:1001A0000E94341B0C94921D2BCF8BE08093810016
:1001B0008DE790E0909389008093880082E080939F
:1001C0006F0010928500109284008091B00290918F
:1001D000B102A091B202B091B3028093AA059093AC
:1001E000AB05A093AC05B093AD058FB780688FBF0A
:1001F00008951F920F920FB60F9211248F939F9321
:10020000AF93BF938091AA059091AB05A091AC05E7
:10021000B091AD050197A109B1098093AA0590930A
:10022000AB05A093AC05B093AD05892B8A2B8B2B26
:1002300099F481E08093AE058091B0029091B10273
:10024000A091B202B091B3028093AA059093AB053E
:10025000A093AC05B093AD05BF91AF919F918F91E5
:100260000F900FBE0F901F901895181619069CF44A
:1002700040E050E077E063E00BC00000215031091E
:1002800021153105D1F74F5F5F4F4817590719F016
:10029000272F362FF2CF089510988BB9119A0000AE
:1002A000119882E090E0E1CF089581E0F5CF0895C4
:1002B000813118F48158F0CF08958155EDCF08951C
:1002C00084E690E0D2DF88E3E7DF86E0E5DF8FE0D9
:1002D000E3DF81E0E1DF8AE090E0C7CF0895109A84
:1002E0008BB9119A0000119881E090E0BECF08957B
:1002F0000F931F93CF93DF93182FEB01D6DF8881E5
:10030000882359F001E0010F812FD2DF8991E7DFC7
:100310008881882311F0102FF5CFDF91CF911F91A5
:100320000F9108958CE0B8CF08958EE0D8DF8AE071
:10033000D6DF8EE0D4DF85E1D2DF84E0D0DF8EE04F
:10034000CEDF8AE0CCDF8AE0CACF089580E0C7DF45
:1003500080E0C5DF8EE0C3DF81E1C1DF8AE0BFDF7F
:1003600084E0BDDF80E0BBDF80E0B9CF08958EE0A0
:10037000B6DF85E1B4DF85E1B2DF8BE1B0DF85E197
:10038000AEDF85E1ACDF85E1AADF8EE0A8CF08957E
:1003900080E0A5DF84E0A3DF8AE0A1DF85E19FDFC5
:1003A0008BE19DDF85E19BDF8EE099DF80E097CFD9
:1003B000089584E094DF8AE092DF81E190DF8BE1B1
:1003C0008EDF85E18CDF85E18ADF8AE088DF84E0EB
:1003D00086CF089584E083DF8EE081DF8FE17FDFC9
:1003E00084E07DDF8EE07BDF8FE179DF84E077DF03
:1003F00084E075CF089584E072DF8EE070DF85E1E0
:100400006EDF84E06CDF84E06ADF80E068DF80E03C
:1004100066DF80E064CF089580E061DF80E05FDF29
:1004200080E05DDF84E05BDF84E059DF85E157DF5A
:100430008EE055DF84E053CF089580E42DDF75DF33
:1004400085DFA6DFB6DF93DFC5DFD5DFE5CF089513
:1004500080914D07813118F48093A0060895805152
:100460008093A00681E08093E406089580914D0773
:10047000813118F08093A0060895805F8093A006D4
:1004800081E08093E406089580914D07982F9F7E28
:10049000913019F48093A006089581508093A006AE
:1004A00081E08093E406089580914D07803111F03A
:1004B000803219F48093A00608958F5F8093A00680
:1004C00081E08093E406089580916206823311F4FE
:1004D000BFCF0895853311F4C9CF0895843311F443
:1004E000D3CF0895863309F4DFCF0895109296068E
:1004F000109295068AE590E0A0E0B0E0809318079E
:1005000090931907A0931A07B0931B071092F30555
:100510000895803510F09FEF95B9863418F08FE775
:1005200085B908958C3318F08FE385B90895823327
:1005300018F08FE185B90895883218F08FE085B9F9
:1005400008958E3118F087E085B90895843118F048
:1005500083E085B908958B3018F081E085B908955E
:100560008A3011F415B80895893019F481E085B9FD
:100570000895883011F415B80895873019F481E092
:1005800085B90895863011F415B80895853019F4A9
:1005900081E085B90895843011F415B80895833049
:1005A00019F481E085B90895823011F415B80895E1
:1005B000813011F485B9089515B80895CF93DF936C
:1005C000EC018091B606882309F180919006811193
:1005D0001DC08091950690919606892BB9F4809163
:1005E000180797DF409118075091190760911A0773
:1005F00070911B0741505109610971094093180717
:100600005093190760931A0770931B0740911807BE
:100610005091190760911A0770911B07452B462BC3
:10062000472B39F481E090E09093960680939506ED
:1006300015B8CE01DF91CF9108953ADE84E54FDE03
:1006400089E64DDE8DE64BDE85E649DE80E247DE5B
:100650008CE645DE85E643DE86E641DE84E73FDE66
:100660008AE33DCE08951F93CF93DF93C82FD62FF3
:10067000843678F019E2819F112D112412951F7094
:10068000862F16DE80E3810F2ADE84E6189FC019CC
:100690001124CA3098F01DECC19F112D112416951C
:1006A0001695169581E08D0F03DE80E3810F17DE2E
:1006B000110F812F880F880F180FC11BCC2339F021
:1006C00082E08D0FF5DD80E38C0F09DE02C080E350
:1006D00006DE83E704DE85E602DE83E600DEDF91E8
:1006E000CF911F9108958EE090E00E94671D8037A2
:1006F00027E1920728F49093D4068093D3060895B7
:100700001092D4061092D3060895BC018EE090E0BA
:100710000C946C1D089520918A0630918B06820FEF
:10072000931F90938B0680938A06089510928B06F0
:1007300010928A061092EC051092C206089560ECA1
:1007400072E081E0D5CD089580918A0690918B0664
:100750009093D4068093D306D8CF0895FF920F9339
:100760001F93CF93DF93EC01F62E84369105B0F002
:100770009C013695279536952795ABE7B4E10E9405
:10078000581D8C01169507958F2D92DD80E3800F03
:10079000A6DD84E6089FC019D1091124CA30D1050D
:1007A000B8F09E01ADECBCEC0E94581D8C01169572
:1007B0000795169507951695079581E08F0D78DDBD
:1007C00080E3800F8CDD8AE0089FC019D1091124D5
:1007D000209739F082E08F0D6BDD8C2F805D7FDDFF
:1007E00005C082E08F0D64DD80E379DDDF91CF917C
:1007F0001F910F91FF900895CF93C62F811118C0BC
:10080000862F56DD83E56BDD83E669DD8FE667DDE8
:1008100082E765DD85E663DD8AE361DD89E08C0FD3
:1008200047DD80E75CDD84E75ADD83E758DD1FC0E4
:10083000862F3EDD88E453DD89E651DD87E64FDD16
:1008400088E64DDD83E54BDD83E649DD8FE647DD58
:1008500082E745DD85E643DD8AE341DD8DE08C0FEF
:1008600027DD80E73CDD84E73ADD83E738DDCF91A3
:1008700008958FE080934D078093A00610923E0666
:1008800081E08093130782E090E0909315078093B6
:1008900014078EE0809316071092170722E020932A
:1008A000430783E090E0909345078093440789E1F4
:1008B000809346071092470781E18093F9062093C1
:1008C000FA0694E09093FB0696E09093FC0690E283
:1008D0009093EB0694E19093EC068093ED068FE7FE
:1008E0008093EE0608950F931F93CF93DF9380912B
:1008F000E406882309F44AC080914D07D9DC80E2E0
:10090000EEDC80919A02882309F43BC010E0C12FED
:10091000D0E0CC0FDD1FC556DD4FE881F981828123
:10092000C7DCE881F9818381DADC1F5F80919A025C
:10093000181768F326C08991BBDC85E0D0DCC017AE
:10094000D107C9F7CCEAD2E000EB12E0E881F981E7
:100950008481811106C08381ABDCE881F9818081CB
:10096000BEDC2296C017D10789F78091A006A0DCD3
:1009700080E0B5DC8091A00680934D071092E406DC
:1009800005C0CFE9D2E00CEA12E0D5CFDF91CF91DC
:100990001F910F910895CF93DF9380919A0288233E
:1009A00011F1C0E0D1E0EC2FF0E0EE0FFF1FE556B3
:1009B000FD4F0190F081E02D928180914D079813B9
:1009C0000DC080916206813349F4818180933E0697
:1009D000D093E40680818093A00667DCCF5F80918E
:1009E0009A02C81700F3DF91CF910895FF920F93F9
:1009F0001F93CF93DF933091A00680919F028317BE
:100A000039F0E0EAF2E08CEA92E02191231307C08A
:100A100080914D078093A0061092E4061DC0E81750
:100A2000F90799F719C0E881F981938180914D0701
:100A300098130DC080916206813349F4848181113D
:100A400006C0F482E881F9818181928164DE229678
:100A5000C017D10741F707C0CCEAD2E000EB12E0A3
:100A6000FF24F394E0CFDF91CF911F910F91FF907E
:100A7000089580916306833018F01092610605C0D6
:100A8000809161068F5F80936106809161068093FB
:100A9000630681E08093C80582E090E09093CA05E8
:100AA0008093C9052DE12093CB051092CC0580934E
:100AB000810683E090E090938306809382062093E2
:100AC0008406109285068093770685E090E09093E7
:100AD00079068093780620937A0610927B0684E04C
:100AE000809373061092740691E19093750697E0D7
:100AF0009093760699E1909331078093320780E1D5
:100B00008093330786E08093340708950F931F93F3
:100B1000CF93DF938091E406882309F452C080913B
:100B20004D07C6DB80E2DBDB80918002882309F47D
:100B300043C010E0C12FD0E0CC0FDD1FCF57DD4FF9
:100B4000E881F9818281B4DBE881F9818381C7DBA7
:100B50001F5F80918002181768F32EC08991A8DB6F
:100B600085E0BDDBC017D107C9F7E0916306F0E06F
:100B7000EE0FFF1FEC56FD4F0190F081E02D8481B8
:100B800081110EC0838194DBE0916306F0E0EE0FEB
:100B9000FF1FEC56FD4F0190F081E02D80819FDB1F
:100BA0008091A00685DB80E09ADB8091A00680938F
:100BB0004D071092E40605C0C5E8D2E004E912E052
:100BC000CDCFDF91CF911F910F910895CF93DF93F8
:100BD00080918002882311F1C0E0D1E0EC2FF0E099
:100BE000EE0FFF1FEF57FD4F0190F081E02D928136
:100BF00080914D0798130DC080916206813349F4AE
:100C0000818180933E06D093E40680818093A00684
:100C10004CDBCF5F80918002C81700F3DF91CF914A
:100C200008953091A00680918502831739F0E6E897
:100C3000F2E084E992E02191231307C080914D07EF
:100C40008093A0061092E40603C0E817F90799F70D
:100C50008091630690E0FC01EE0FFF1FEC56FD4F04
:100C60000190F081E02D338120914D07321314C0A3
:100C700020916206213381F4248121110DC021E0ED
:100C80002483FC01EE0FFF1FEC56FD4F0190F08115
:100C9000E02D818192813FCD089521E02093B90517
:100CA00082E090E09093BB058093BA0534E13093E5
:100CB000BC051092BD0520932B0690932D068093C2
:100CC0002C063EE130932E0610922F062093B1069B
:100CD0009093B3068093B2068FE18093B40610928E
:100CE000B50632E030935D0783E090E090935F07B4
:100CF00080935E07109261073093A1069093A3063C
:100D00008093A20688E1809360071092A50680E197
:100D10008093A6063093A70699E19093A80697E0E2
:100D20009093A90620932D0796E090932E07809329
:100D30002F078EE78093300708950F931F93CF936B
:100D4000DF938091E406882309F44AC080914D071F
:100D5000AFDA80E2C4DA80916102882309F43BC0F3
:100D600010E0C12FD0E0CC0FDD1FCE59DD4FE88160
:100D7000F98182819DDAE881F9818381B0DA1F5F90
:100D800080916102181768F326C0899191DA85E095
:100D9000A6DAC017D107C9F7C6E7D2E000E812E02B
:100DA000E881F9818481811106C0838181DAE8813B
:100DB000F981808194DA2296C017D10789F7809152
:100DC000A00676DA80E08BDA8091A00680934D074A
:100DD0001092E40605C0C6E6D2E006E712E0D5CFE1
:100DE000DF91CF911F910F910895CF93DF93809161
:100DF0006102882311F1C0E0D1E0EC2FF0E0EE0FAA
:100E0000FF1FEE59FD4F0190F081E02D92818091FE
:100E10004D0798130DC080916206813349F481819A
:100E200080933E06D093E40680818093A0063DDA4D
:100E3000CF5F80916102C81700F3DF91CF910895D1
:100E4000FF920F931F93CF93DF933091A006809171
:100E50006602831739F0E7E6F2E086E792E0219137
:100E6000231307C080914D078093A0061092E406DB
:100E70001DC0E817F90799F719C0E881F981938136
:100E800080914D0798130DC080916206813349F41B
:100E90008481811106C0F482E881F9818181928187
:100EA0003ADC2296C017D10741F707C0C6E7D2E067
:100EB00000E812E0FF24F394E0CFDF91CF911F917F
:100EC0000F91FF90089521E020930D0782E090E0BC
:100ED00090930F0780930E0736E13093100710921E
:100EE00011072093190690931B0680931A0689E038
:100EF00080931C0610921D0633E03093B80683E001
:100F000090E09093BA068093B9063093BB06109296
:100F1000BC063093C3069093C5068093C4068DE04B
:100F20008093C6061092C70680E18093BE0694E0C7
:100F30009093BF062093C0069FE79093C1068093CD
:100F4000350788E08093360780E28093370787E093
:100F50008093380708950F931F93CF93DF93809169
:100F6000E406882309F45FC080914D07A1D980E28F
:100F7000B6D980914902882309F450C010E0C12FEE
:100F8000D0E0CC0FDD1FC65BDD4FE881F9818281A7
:100F90008FD9E881F9818381A2D91F5F80914902AD
:100FA000181768F33BC0899183D985E098D9C01799
:100FB000D107C9F78091570290915802892B11F1FE
:100FC00010E0C12FD0E0FE01EE0FFF1FE75AFD4FEA
:100FD0000190F081E02D848181110AC0838168D95C
:100FE000CC0FDD1FC75ADD4FE881F981808177D9A9
:100FF0001F5F212F30E080915702909158022817EF
:101000003907F8F28091A00653D980E068D9809121
:10101000A00680934D071092E40605C0CEE4D2E00E
:1010200007E512E0C0CFDF91CF911F910F91089596
:10103000CF93DF9380914902882311F1C0E0D1E082
:10104000EC2FF0E0EE0FFF1FE65BFD4F0190F0810B
:10105000E02D928180914D0798130DC0809162061A
:10106000813349F4818180933E06D093E4068081E8
:101070008093A0061AD9CF5F80914902C81700F368
:10108000DF91CF910895CF93DF933091A0068091A7
:101090004E02831739F0EFE4F2E087E592E0219108
:1010A00023130DC080914D078093A0061092E40693
:1010B0008091570290915802892B29F432C0E81789
:1010C000F90769F7F5CFC0E0D1E08C2F90E0FC0183
:1010D000EE0FFF1FE75AFD4F0190F081E02D3381A5
:1010E00020914D07321313C020916206213379F409
:1010F000248121110CC0D483FC01EE0FFF1FE75A9D
:10110000FD4F0190F081E02D8181928104DBCF5F62
:101110002C2F30E080915702909158022817390700
:10112000A0F2DF91CF91089521E02093450682E05F
:1011300090E09093470680934606209348061092CD
:10114000490680E18093E10586E08093E20596E11F
:1011500090939E0697E090939F062BE12093CF05F6
:101160009093D00590E29093DF058093E0058EE0A8
:1011700080939C068AE080939D0682E08093CD0553
:101180008CE08093CE0508950F931F93CF93DF9348
:101190008091E406882309F45FC080914D0788D8C8
:1011A00080E29DD880913202882309F450C010E07B
:1011B000C12FD0E0CC0FDD1FCD5CDD4FE881F98180
:1011C000828176D8E881F981838189D81F5F8091F7
:1011D0003202181768F33BC089916AD885E07FD83E
:1011E000C017D107C9F78091450290914602892B1B
:1011F00011F110E0C12FD0E0FE01EE0FFF1FE95BFF
:10120000FD4F0190F081E02D848181110AC083811E
:101210004FD8CC0FDD1FC95BDD4FE881F98180819C
:101220005ED81F5F212F30E08091450290914602E9
:1012300028173907F8F28091A0063AD880E04FD8F5
:101240008091A00680934D071092E40605C0C9E383
:10125000D2E005E412E0C0CFDF91CF911F910F9152
:101260000895CF93DF9380913202882311F1C0E07B
:10127000D1E0EC2FF0E0EE0FFF1FED5CFD4F019091
:10128000F081E02D928180914D0798130DC08091DF
:101290006206813349F4818180933E06D093E4064F
:1012A00080818093A00601D8CF5F80913202C81759
:1012B00000F3DF91CF910895CF93DF933091A00693
:1012C00080913902831739F0EAE3F2E085E492E095
:1012D000219123130DC080914D078093A006109299
:1012E000E4068091450290914602892B29F432C090
:1012F000E817F90769F7F5CFC0E0D1E08C2F90E04F
:10130000FC01EE0FFF1FE95BFD4F0190F081E02D26
:10131000338120914D07321313C02091620621338F
:1013200079F4248121110CC0D483FC01EE0FFF1F3E
:10133000E95BFD4F0190F081E02D81819281EBD935
:10134000CF5F2C2F30E08091450290914602281704
:101350003907A0F2DF91CF9108958EE08093D805F0
:1013600096E09093D9059AE19093CA0697E09093FE
:10137000CB0690E19093D60598E09093D7059AE03C
:101380009093C8068093C90608950F931F93CF9337
:10139000DF938091E4068823F1F180914D070E944C
:1013A000580180E20E946F0180911F02882371F131
:1013B00010E0C12FD0E0CC0FDD1FC05EDD4FE88113
:1013C000F98182810E945801E881F98183810E941C
:1013D0006F011F5F80911F02181758F317C0899182
:1013E0000E94580185E00E946F01C017D107B9F72C
:1013F0008091A0060E94580180E00E946F018091B8
:10140000A00680934D071092E40605C0C4E2D2E026
:1014100002E312E0E4CFDF91CF911F910F91089585
:10142000CF93DF9380911F02882319F1C0E0D1E0B0
:10143000EC2FF0E0EE0FFF1FE05EFD4F0190F0811A
:10144000E02D928180914D0798130EC08091620625
:10145000813351F4818180933E06D093E4068081EC
:101460008093A0060E945501CF5F80911F02C8178C
:10147000F8F2DF91CF9108953091A0068091240277
:10148000831739F0E5E2F2E082E392E02191231341
:1014900007C080914D078093A0061092E40608953E
:1014A000E817F90799F7089584E0809322068FE002
:1014B00090E0909324068093230689E0809325068C
:1014C00081E08093260683E080930C0685E090E01F
:1014D00090930E0680930D0680E280930F06109283
:1014E000100682E080938E0686E080938F068BE163
:1014F00080938C0688E080938D061092BD06089537
:101500000F931F93CF93DF938091E406882309F410
:1015100069C080914D070E94580180E20E946F01CE
:1015200080910C02882309F458C010E0C12FD0E04C
:10153000CC0FDD1FC35FDD4FE881F98182810E94FE
:101540005801E881F98183810E946F011F5F8091BA
:101550000C02181758F341C089910E94580185E088
:101560000E946F01C017D107B9F7809119029091BD
:101570001A02892B21F110E0C12FD0E0FE01EE0FFD
:10158000FF1FE55EFD4F0190F081E02D8481811108
:101590000CC083810E945801CC0FDD1FC55EDD4F5A
:1015A000E881F98180810E946F011F5F212F30E067
:1015B0008091190290911A0228173907E8F2809158
:1015C000A0060E94580180E00E946F018091A00651
:1015D00080934D071092E40605C0CFE0D2E009E108
:1015E00012E0BACFDF91CF911F910F910895CF9361
:1015F000DF9380910C02882319F1C0E0D1E0EC2F39
:10160000F0E0EE0FFF1FE35FFD4F0190F081E02D52
:10161000928180914D0798130EC0809162068133AC
:1016200051F4818180933E06D093E40680818093BB
:10163000A0060E945501CF5F80910C02C817F8F2F6
:10164000DF91CF910895CF93DF933091A0068091E1
:101650000F02831739F0E0E1F2E089E192E0219195
:1016600023130DC080914D078093A0061092E406CD
:101670008091190290911A02892B29F432C0E8173F
:10168000F90769F7F5CFC0E0D1E08C2F90E0FC01BD
:10169000EE0FFF1FE55EFD4F0190F081E02D3381DD
:1016A00020914D07321313C020916206213379F443
:1016B000248121110CC0D483FC01EE0FFF1FE55ED5
:1016C000FD4F0190F081E02D8181928124D8CF5F80
:1016D0002C2F30E08091190290911A0228173907B7
:1016E000A0F2DF91CF9108958AE08093D40596E02F
:1016F0009093D5059EE190931E0797E090931F0766
:1017000091E0909393069FE7909394069AE19093CB
:10171000D2058093D30585E080931C0780E18093F8
:101720001D078093910682E18093920608950F939E
:101730001F93CF93DF938091E4068823F1F180918A
:101740004D070E94580180E20E946F018091FC01C8
:10175000882371F110E0C12FD0E0CC0FDD1FC35002
:10176000DE4FE881F98182810E945801E881F98188
:1017700083810E946F011F5F8091FC01181758F34D
:1017800017C089910E94580185E00E946F01C0171F
:10179000D107B9F78091A0060E94580180E00E940D
:1017A0006F018091A00680934D071092E40605C05A
:1017B000C3E0D2E00CE012E0E4CFDF91CF911F91C3
:1017C0000F910895CF93DF938091FC01882319F145
:1017D000C0E0D1E0EC2FF0E0EE0FFF1FE350FE4F32
:1017E0000190F081E02D928180914D0798130EC0F9
:1017F00080916206813351F4818180933E06D093BB
:10180000E40680818093A0060E945501CF5F8091FD
:10181000FC01C817F8F2DF91CF9108953091A0062E
:1018200080910302831739F0E4E0F2E08CE092E06B
:101830002191231307C080914D078093A006109239
:10184000E4060895E817F90799F7089585E080936D
:10185000EF0586E08093F0058AE0809313068BED18
:10186000809314068EE18093ED059EE09093EE0543
:1018700098E0909311068093120681E080936707A9
:1018800008950F931F93CF93DF938091E4068823ED
:10189000A9F180914D070E94580180E20E946F01DA
:1018A00080916707882341F0809113060E945801B8
:1018B000809114060E946F018091EF050E945801EB
:1018C0008091F0050E946F01CAEED1E00CEF11E0AB
:1018D00089910E94580185E00E946F01C017D107CD
:1018E000B9F78091A0060E94580180E00E946F0124
:1018F0008091A00680934D071092E406DF91CF916E
:101900001F910F91089580914D07909113069813A0
:1019100014C090916206913381F4809112068093F5
:101920003E0681E08093E406809111068093A00634
:10193000109267070C94550108959091EF05891353
:1019400011C080916206813369F48091EE05809325
:101950003E0681E08093E4068091ED058093A00629
:101960000C94550108953091A0068091EA018317E7
:1019700039F0EBEEF1E08CEF91E02191231307C0F9
:1019800080914D078093A0061092E4060895E81711
:10199000F90799F7089521E02093AC0682E090E0E2
:1019A0009093AE068093AD0636E13093AF06109269
:1019B000B0062093B4059093B6058093B50537E142
:1019C0003093B7051092B8052093AF059093B105F9
:1019D0008093B00538E03093B2051092B3052093A0
:1019E0005706909359068093580689E080935A06CB
:1019F00010925B0682E08093EF0683E090E0909384
:101A0000F1068093F0068FE18093F2061092F306C0
:101A100084E08093CE068FE090E09093D006809390
:101A2000CF062093D1061092D20683E08093C3059F
:101A300085E090E09093C5058093C4058DE0809388
:101A4000C6051092C70520933A078EE080933B07A6
:101A500080E180933C078EE780933D0708950F93C4
:101A60001F93CF93DF938091E406882309F469C024
:101A700080914D070E94580180E20E946F01809181
:101A8000CE01882309F458C010E0C12FD0E0CC0F5C
:101A9000DD1FC153DE4FE881F98182810E94580128
:101AA000E881F98183810E946F011F5F8091CE01DF
:101AB000181758F341C089910E94580185E00E948F
:101AC0006F01C017D107B9F78091DA019091DB015E
:101AD000892B21F110E0C12FD0E0FE01EE0FFF1F96
:101AE000E452FE4F0190F081E02D848181110CC001
:101AF00083810E945801CC0FDD1FC452DE4FE88164
:101B0000F98180810E946F011F5F212F30E0809159
:101B1000DA019091DB0128173907E8F28091A006DD
:101B20000E94580180E00E946F018091A00680937E
:101B30004D071092E40605C0C1EDD1E00AED11E0B9
:101B4000BACFDF91CF911F910F910895CF93DF937B
:101B50008091CE01882319F1C0E0D1E0EC2FF0E0B4
:101B6000EE0FFF1FE153FE4F0190F081E02D9281B7
:101B700080914D0798130EC080916206813351F415
:101B8000818180933E06D093E40680818093A006F5
:101B90000E945501CF5F8091CE01C817F8F2DF9106
:101BA000CF910895CF93DF933091A0068091D1011A
:101BB000831739F0E2EDF1E08AED91E021912313F2
:101BC0000DC080914D078093A0061092E40680918D
:101BD000DA019091DB01892B29F433C0E817F9076A
:101BE00069F7F5CFC0E0D1E08C2F90E0FC01EE0F5B
:101BF000FF1FE452FE4F0190F081E02D33812091D0
:101C00004D07321314C020916206213381F42481E0
:101C100021110DC0D483FC01EE0FFF1FE452FE4FD3
:101C20000190F081E02D818192810E948B03CF5F32
:101C30002C2F30E08091DA019091DB0128173907D1
:101C400098F2DF91CF91089580E2809388068EE725
:101C50008093890681E0809327078FE78093280788
:101C600084E18093E50587E08093E60581E1809338
:101C700086061092870680E18093250786E180938F
:101C800026078DE08093E30588E18093E4050895BD
:101C90000F931F93CF93DF938091E4068823F1F194
:101CA00080914D070E94580180E20E946F0180914F
:101CB000BA01882371F110E0C12FD0E0CC0FDD1FF5
:101CC000C554DE4FE881F98182810E945801E88184
:101CD000F98183810E946F011F5F8091BA011817FB
:101CE00058F317C089910E94580185E00E946F0146
:101CF000C017D107B9F78091A0060E94580180E073
:101D00000E946F018091A00680934D071092E40617
:101D100005C0C1ECD1E00EEC11E0E4CFDF91CF9132
:101D20001F910F910895CF93DF938091BA0188237B
:101D300019F1C0E0D1E0EC2FF0E0EE0FFF1FE55409
:101D4000FE4F0190F081E02D928180914D07981314
:101D50000EC080916206813351F4818180933E06EA
:101D6000D093E40680818093A0060E945501CF5F46
:101D70008091BA01C817F8F2DF91CF9108953091A0
:101D8000A0068091C101831739F0E2ECF1E08EECFE
:101D900091E02191231307C080914D078093A00605
:101DA0001092E4060895E817F90799F7089544E0BA
:101DB000409397068FE090E0909399068093980661
:101DC00087E180939A0610929B0683E08093030636
:101DD00085E090E0909305068093040689E0809367
:101DE00006061092070632E03093480783E090E041
:101DF00090934A07809349078FE180934B07109295
:101E00004C0721E02093690682E090E090936B06F6
:101E100080936A065FE050936C0610926D062093E3
:101E2000BE059093C0058093BF054093C1051092F5
:101E3000C20520935C0690935E0680935D0680E267
:101E400080935F061092600680E180932B078EE7F7
:101E500080932C0781E180934C0687E080934D06A8
:101E60002093290784E180932A0730934A068CE166
:101E700080934B0608950F931F93CF93DF93809128
:101E8000E406882309F469C080914D070E94580137
:101E900080E20E946F0180919D01882309F458C05F
:101EA00010E0C12FD0E0CC0FDD1FC256DE4FE8811D
:101EB000F98182810E945801E881F98183810E9421
:101EC0006F011F5F80919D01181758F341C08991E0
:101ED0000E94580185E00E946F01C017D107B9F731
:101EE0008091AC019091AD01892B21F110E0C12FBF
:101EF000D0E0FE01EE0FFF1FE255FE4F0190F08192
:101F0000E02D848181110CC083810E945801CC0F87
:101F1000DD1FC255DE4FE881F98180810E946F018B
:101F20001F5F212F30E08091AC019091AD01281707
:101F30003907E8F28091A0060E94580180E00E94D3
:101F40006F018091A00680934D071092E40605C0B2
:101F5000C2EAD1E00CEA11E0BACFDF91CF911F9134
:101F60000F910895CF93DF9380919D01882319F1FC
:101F7000C0E0D1E0EC2FF0E0EE0FFF1FE256FE4F85
:101F80000190F081E02D928180914D0798130EC051
:101F900080916206813351F4818180933E06D09313
:101FA000E40680818093A0060E945501CF5F809156
:101FB0009D01C817F8F2DF91CF910895CF93DF9379
:101FC0003091A0068091A201831739F0E3EAF1E095
:101FD0008CEA91E0219123130DC080914D078093ED
:101FE000A0061092E4068091AC019091AD01892B7E
:101FF00029F433C0E817F90769F7F5CFC0E0D1E05D
:102000008C2F90E0FC01EE0FFF1FE255FE4F019078
:10201000F081E02D338120914D07321314C02091BF
:102020006206213381F4248121110DC0D483FC0187
:10203000EE0FFF1FE255FE4F0190F081E02D8181F0
:1020400092810E948B03CF5F2C2F30E08091AC01F6
:102050009091AD012817390798F2DF91CF9108953B
:1020600041E04093400682E090E0909342068093E6
:10207000410625E0209343061092440623E0209376
:10208000F40525E030E03093F6052093F50522E1D4
:102090002093F7051092F80540934E079093500750
:1020A00080934F072AE1209351071092520732E0A4
:1020B0003093200783E090E09093220780932107DC
:1020C0005DE15093230710922407309353079093B8
:1020D00055078093540789E080935607409357072C
:1020E00084E08093FE058FE090E09093000680935B
:1020F000FF058FE180930106409302068DE08093F7
:102100007F0686E08093800680E1809329068EE733
:1021100080932A0687E180933C0687E080933D0602
:1021200084E180937D0680937E0681E1809327067B
:10213000209328068AE080933A068EE180933B063E
:102140001092390708950F931F93CF93DF938091D7
:10215000E406882309F469C080914D070E94580164
:1021600080E20E946F0180917D01882309F458C0AC
:1021700010E0C12FD0E0CC0FDD1FC258DE4FE88148
:10218000F98182810E945801E881F98183810E944E
:102190006F011F5F80917D01181758F341C089912D
:1021A0000E94580185E00E946F01C017D107B9F75E
:1021B00080918F0190919001892B21F110E0C12F26
:1021C000D0E0FE01EE0FFF1FEF56FE4F0190F081B1
:1021D000E02D848181110CC083810E945801CC0FB5
:1021E000DD1FCF56DE4FE881F98180810E946F01AB
:1021F0001F5F212F30E080918F019091900128176F
:102200003907E8F28091A0060E94580180E00E9400
:102210006F018091A00680934D071092E40605C0DF
:10222000C4E8D1E00FE811E0BACFDF91CF911F9160
:102230000F910895CF93DF9380917D01882319F149
:10224000C0E0D1E0EC2FF0E0EE0FFF1FE258FE4FB0
:102250000190F081E02D928180914D0798130EC07E
:1022600080916206813351F4818180933E06D09340
:10227000E40680818093A0060E945501CF5F809183
:102280007D01C817F8F2DF91CF910895CF93DF93C6
:102290003091A00680918401831739F0E5E8F1E0E0
:1022A0008FE891E0219123130DC080914D07809319
:1022B000A0061092E40680918F0190919001892BE5
:1022C00029F433C0E817F90769F7F5CFC0E0D1E08A
:1022D0008C2F90E0FC01EE0FFF1FEF56FE4F019098
:1022E000F081E02D338120914D07321314C02091ED
:1022F0006206213381F4248121110DC0D483FC01B5
:10230000EE0FFF1FEF56FE4F0190F081E02D81810F
:1023100092810E948B03CF5F2C2F30E080918F0140
:10232000909190012817390798F2DF91CF91089585
:1023300083E08093F40685E090E09093F606809326
:10234000F50688E08093F70621E02093F8062093B5
:102350006D0782E090E090936F0780936E0735E100
:1023600030937007209371072093080790930A0712
:102370008093090787E180930B0710920C0782E096
:102380008093520683E090E0909354068093530626
:102390008BE1809355061092560684E0809368077F
:1023A0008FE090E090936A07809369078EE18093B5
:1023B0006B0720936C0781E1809320068FE7809361
:1023C000210680E280931E0688E180931F0610920A
:1023D0007C0608950F931F93CF93DF938091E406BB
:1023E000882309F469C080914D070E94580180E25A
:1023F0000E946F0180916101882309F458C010E0A8
:10240000C12FD0E0CC0FDD1FCE59DE4FE881F9811E
:1024100082810E945801E881F98183810E946F01C5
:102420001F5F80916101181758F341C089910E9484
:10243000580185E00E946F01C017D107B9F780915C
:10244000710190917201892B21F110E0C12FD0E030
:10245000FE01EE0FFF1FED58FE4F0190F081E02DC1
:10246000848181110CC083810E945801CC0FDD1F33
:10247000CD58DE4FE881F98180810E946F011F5F96
:10248000212F30E080917101909172012817390756
:10249000E8F28091A0060E94580180E00E946F013E
:1024A0008091A00680934D071092E40605C0C4E613
:1024B000D1E001E711E0BACFDF91CF911F910F91E9
:1024C0000895CF93DF9380916101882319F1C0E0D3
:1024D000D1E0EC2FF0E0EE0FFF1FEE59FE4F019020
:1024E000F081E02D928180914D0798130EC080916C
:1024F0006206813351F4818180933E06D093E406D5
:1025000080818093A0060E945501CF5F8091610178
:10251000C817F8F2DF91CF910895CF93DF933091F0
:10252000A00680916401831739F0E5E6F1E081E7C8
:1025300091E0219123130DC080914D078093A00657
:102540001092E4068091710190917201892B29F417
:1025500033C0E817F90769F7F5CFC0E0D1E08C2F59
:1025600090E0FC01EE0FFF1FED58FE4F0190F0814F
:10257000E02D338120914D07321314C02091620663
:10258000213381F4248121110DC0D483FC01EE0F8D
:10259000FF1FED58FE4F0190F081E02D8181928167
:1025A0000E948B03CF5F2C2F30E0809171019091BE
:1025B00072012817390798F2DF91CF910895F4E05E
:1025C000F09303072FE030E03093050720930407D2
:1025D000F093060710920707E1E0E093E70582E039
:1025E00090E09093E9058093E80548E04093EA0580
:1025F0001092EB05B3E0B093DF0645E050E0509356
:10260000E1064093E00667E06093E2061092E3067D
:10261000E093FE06909300078093FF0669E06093C5
:10262000010710920207E093D5069093D706809396
:10263000D6066AE06093D806E093D906F093DA06EE
:102640003093DC062093DB066FE06093DD0610928A
:10265000DE06A2E0A093F90563E070E07093FB054D
:102660006093FA0569E16093FC05E093FD05F09342
:102670006E063093700620936F0667E160937106D3
:10268000E0937206E093580790935A078093590796
:102690006AE160935B0710925C07E0936406909395
:1026A0006606809365066BE0609367061092680685
:1026B000B0933506509337064093360648E1409371
:1026C000380610923906F09362073093640720931E
:1026D00063072CE12093650710926607A0933E07DD
:1026E0009093400780933F078EE1809341071092BB
:1026F000420790E1909350069EE790935106A09375
:10270000DD0596E09093DE05E0934E0680934F063C
:1027100081E18093DB0586E18093DC051092E5067C
:1027200008950F931F93CF93DF938091E40688233E
:1027300009F469C080914D070E94580180E20E940F
:102740006F0180913601882309F458C010E0C12F31
:10275000D0E0CC0FDD1FC95CDE4FE881F9818281BA
:102760000E945801E881F98183810E946F011F5FF7
:1027700080913601181758F341C089910E94580181
:1027800085E00E946F01C017D107B9F7809145011C
:1027900090914601892B21F110E0C12FD0E0FE017C
:1027A000EE0FFF1FE95BFE4F0190F081E02D848169
:1027B00081110CC083810E945801CC0FDD1FC95BC1
:1027C000DE4FE881F98180810E946F011F5F212F18
:1027D00030E0809145019091460128173907E8F2D1
:1027E0008091A0060E94580180E00E946F018091B4
:1027F000A00680934D071092E40605C0CBE3D1E01C
:1028000005E411E0BACFDF91CF911F910F910895A8
:10281000CF93DF9380913601882319F1C0E0D1E096
:10282000EC2FF0E0EE0FFF1FE95CFE4F0190F0810E
:10283000E02D928180914D0798130EC08091620621
:10284000813351F4818180933E06D093E4068081E8
:102850008093A0060E945501CF5F80913601C81772
:10286000F8F2DF91CF910895CF93DF933091A006D6
:1028700080913B01831739F0ECE3F1E085E491E0CE
:10288000219123130DC080914D078093A0061092D3
:10289000E4068091450190914601892B29F433C0CB
:1028A000E817F90769F7F5CFC0E0D1E08C2F90E089
:1028B000FC01EE0FFF1FE95BFE4F0190F081E02D60
:1028C000338120914D07321314C0209162062133C9
:1028D00081F4248121110DC0D483FC01EE0FFF1F70
:1028E000E95BFE4F0190F081E02D818192810E9491
:1028F0008B03CF5F2C2F30E08091450190914601F2
:102900002817390798F2DF91CF91089582E08093DC
:10291000E60683E090E09093E8068093E70686E180
:102920008093E9061092EA0681E080930A069BED07
:1029300090930B06809333069FE79093340699E0BB
:102940009093170696E09093180693E090930806EC
:1029500092E19093090697E19093150698E1909380
:10296000160690E1909331069CE190933206809395
:10297000AA0608950F931F93CF93DF938091E406E7
:10298000882309F465C080914D070E94580180E2B8
:102990000E946F018091AA06882341F080910A0667
:1029A0000E9458018BED0E946F0107C08091330691
:1029B0000E9458018FE70E946F01809117060E94C4
:1029C000580186E00E946F01CFE1D1E002E311E0FF
:1029D00089910E94580185E00E946F01C017D107BC
:1029E000B9F78091320190913301892B21F110E0E8
:1029F000C12FD0E0FE01EE0FFF1FEC5CFE4F0190F7
:102A0000F081E02D848181110CC083810E945801E6
:102A1000CC0FDD1FCC5CDE4FE881F98180810E9404
:102A20006F011F5F212F30E08091320190913301BF
:102A300028173907E8F28091A0060E94580180E02B
:102A40000E946F018091A00680934D071092E406CA
:102A5000DF91CF911F910F91089580914D07909133
:102A60000A06981326C090916206913311F5809161
:102A7000AA06882381F01092AA0680910906809305
:102A80003E0681E08093E406809108068093A006CC
:102A90000C94550108958091320680933E0681E0A2
:102AA0008093E406809131068093A0060C94550132
:102AB000089590911706891311C0809162068133A1
:102AC00069F48091160680933E0681E08093E406C7
:102AD000809115068093A0060C9455010895CF931C
:102AE000DF933091A00680911F01831739F0E0E257
:102AF000F1E082E391E0219123130DC080914D0715
:102B00008093A0061092E4068091320190913301E7
:102B1000892B29F433C0E817F90769F7F5CFC0E02E
:102B2000D1E08C2F90E0FC01EE0FFF1FEC5CFE4F1C
:102B30000190F081E02D338120914D07321314C0B4
:102B400020916206213381F4248121110DC0D483A8
:102B5000FC01EE0FFF1FEC5CFE4F0190F081E02DB9
:102B6000818192810E948B03CF5F2C2F30E0809176
:102B70003201909133012817390798F2DF91CF91F4
:102B800008950E9439040E9439050E944D060E9452
:102B900063070E9494080E94AD090E94540A0E9493
:102BA000740B0E94260C0E94CB0C4ED800D958DA28
:102BB000BFDB05DDABCE0895CF92DF92EF92FF929F
:102BC00080913E0690E08032910508F07CC1FC01C6
:102BD000EA5BFF4F67C70E94730481E080933E0663
:102BE0000E94F6040E9473040E94CB046CC10E94F0
:102BF000860583E080933E0666C10E9411060E940E
:102C000086050E94E6055FC10E949D0685E08093CF
:102C10003E0659C10E9420070E949D060E94F506AB
:102C200052C10E94AB0787E080933E064CC10E94D0
:102C300043080E94AB070E94180845C10E94C408BF
:102C400089E080933E063FC10E945C090E94C4084F
:102C50000E94310938C10E94C5098BE080933E066D
:102C600032C10E943C0A0E94C5090E94100A2BC171
:102C70008091BD06811118C06091180770911907E5
:102C800080911A0790911B0727E030E040E050E068
:102C9000E7D621E0672B682B692B09F420E020930D
:102CA000260681E08093BD060E94800A8DE0809315
:102CB0003E0609C10E94230B0E94800A0E94F70A67
:102CC00002C10E94970B8FE080933E06FCC00E94D9
:102CD0000E0C0E94970B0E94E20BF5C00E94410C63
:102CE00081E180933E06EFC00E94B30C0E94410C2C
:102CF0000E94830CE8C00E942F0D83E180933E0662
:102D0000E2C00E94D20D0E942F0D0E94A60DDBC0D2
:102D10000E94480E85E180933E06D5C030D80E94BF
:102D2000480E01D8D0C0A7D887E180933E06CBC01B
:102D300045D9A1D817D9C7C080913907811129C0B9
:102D4000C0901807D0901907E0901A07F0901B0761
:102D5000C701B60123E030E040E050E081D621E039
:102D6000672B682B692B09F420E020935707C701D4
:102D7000B6012BE030E040E050E072D621E0672B56
:102D8000682B692B09F420E02093020681E08093F0
:102D90003907D9D989E180933E0695C077DAD3D92E
:102DA00049DA91C080917C06811137C0C090180724
:102DB000D0901907E0901A07F0901B07D701C601C1
:102DC00083709927AA27BB2721E0892B8A2B8B2B7D
:102DD00009F420E02093F806C701B60125E030E0B1
:102DE00040E050E03DD621E0672B682B692B09F4C9
:102DF00020E020937107C701B60129E030E040E0F0
:102E000050E02ED621E0672B682B692B09F420E0D7
:102E100020936C0781E080937C06DCDA8BE1809361
:102E20003E0651C07ADBD6DA4CDB4DC08091E50618
:102E3000811138C0C0901807D0901907E0901A0788
:102E4000F0901B07C701B60126E030E040E050E0FB
:102E500007D621E0672B682B692B09F420E020932B
:102E6000E306C701B60125E030E040E050E0F8D5C8
:102E700021E0672B682B692B09F420E02093D90609
:102E8000C701B6012BE030E040E050E0E9D521E099
:102E9000672B682B692B09F420E02093720681E0F0
:102EA00080937C063EDC8DE180933E060CC0DCDC2A
:102EB00038DCAEDC08C05EDD8FE180933E0603C0E7
:102EC0000EDE58DDCADDFF90EF90DF90CF900895C1
:102ED0008FEE88B90000309B29C0319B29C0329BFE
:102EE00029C0339B29C08FED88B90000309B26C0D4
:102EF000319B26C0329B26C0339B26C08FEB88B9FE
:102F00000000309B23C0319B23C0329B23C0339BE6
:102F100023C08FE788B90000309B20C0319B20C0C0
:102F2000329B20C0339920C084E4089581E3089542
:102F300084E3089587E308958AE2089582E308957B
:102F400085E3089588E3089580E3089583E3089571
:102F500086E3089589E3089583E2089581E408955E
:102F600082E4089583E4089580E00895CF93DF9389
:102F7000EC01AEDF482F50E04534510508F047C062
:102F8000FA01EA59FF4F8EC51092620643C081E3F1
:102F9000809362063FC082E3809362063BC083E376
:102FA0008093620637C084E38093620633C085E372
:102FB000809362062FC086E3809362062BC087E36E
:102FC0008093620627C088E38093620623C089E36A
:102FD000809362061FC081E4809362061BC082E476
:102FE0008093620617C083E48093620613C084E472
:102FF000809362060FC085E4809362060BC080E375
:103000008093620607C083E28093620603C08FE369
:1030100080936206CE01DF91CF910895CF93C1E1F5
:103020008C2F0E94580180E20E946F01CF5FC13255
:10303000B9F7CF91089581E08093F20510921207BD
:103040001092F10508952091B706222309F445C096
:103050008130910549F082309105E9F1009779F4CA
:103060008FE18093AB0612C08091AB06882369F193
:1030700080916206813451F40E94550126C081304E
:10308000910521F08230910501F108958091AB0600
:103090000E94580180E00E946F018091AB068F5F13
:1030A0000E94580180E20E946F018091AB0681501E
:1030B0008093AB06811103C081E00E94580180E239
:1030C0000E946F0181E090E00895B5DF1092B7068D
:1030D00082E090E0089580E090E008951F93CF9300
:1030E000DF9381E00E945801D1E0C1E011E003C00C
:1030F000C53008F0C12F8D2F0E9458018C2F0E94DF
:103100006F01CF5FDF5FD13199F781E00E945801F5
:10311000DF91CF911F91089561EE72E081E00C94F0
:1031200078010895CF93DF93C0E0D0E08C2F8F5EBD
:103130000E945801E0911B01F0911C01EC0FFD1F52
:1031400080810E946F012196C031D10579F7DF910E
:10315000CF91089580911207E0911D01F0911E0119
:10316000E80FF11D80810E946F01809112078F5F2F
:103170008093120708952091F205222309F44FC08D
:1031800082309105E9F034F4009761F081309105C7
:1031900069F020C083309105C1F08430910509F4B5
:1031A0003CC018C00E94550199DF23C080911207CE
:1031B000803118F5809162068134D9F4ADDF1DC0ED
:1031C000809162068134E9F420C0809162068134E6
:1031D000A1F41BC08230910581F024F48130910567
:1031E000F1F407C08330910561F08430910569F0F6
:1031F0000895B0DF81E090E0089594DF82E090E0F0
:1032000008950CDF83E090E008951092F20581E0CC
:103210008093300680E090E0089580E090E008958B
:1032200062EF72E081E00E9478011092300681E046
:103230008093B6068093E4060895109230061092AB
:10324000DA051092D1050895E091D105E930D9F45D
:1032500062E173E081E00E94780185E00E945801FC
:1032600080E00E946F0181E10E9458018FE70E9477
:103270006F0186E00E946F0187E00E946F018EE778
:103280000C946F010895EC3091F463E373E081E0F6
:103290000E94780185E00E94580181E00E946F0140
:1032A00085E10E94580182E00C946F010895ED3091
:1032B00091F46EE473E081E00E94780185E00E9461
:1032C000580183E00E946F0185E10E94580184E06B
:1032D0000C946F010895F0E0EE0FFF1FEF5FFE4FBB
:1032E0006081718181E00C9478010895CF93DF9320
:1032F000EC0180913006882309F461C0C230D10509
:10330000B9F134F4209769F0C130D105B9F03BC070
:10331000C330D10509F44BC0C430D10509F44AC00B
:1033200032C08091DA05811148C06AE673E081E01D
:103330000E94780181E08093DA0541C080916206A5
:10334000813489F18234D9F5E091D105F0E0EE0FB6
:10335000FF1FEF5FFE4F6081718181E00E94780165
:103360008091D1058F5F8093D105C2E0D0E027C066
:1033700080916206813419F59091D1058091000108
:10338000981308C010C0C330D10521F0C430D10556
:10339000B1F409C059DF8091D1058F5F8093D105C9
:1033A000C3E0D0E00CC03CDFC0E0D0E008C0C2E029
:1033B000D0E005C0C0E0D0E002C0C1E0D0E0CE0166
:1033C000DF91CF9108950E941D0237DF0E9496037E
:1033D0000E947303D6DB0E9476021092FD0683E002
:1033E00080933F061092B606109290061092CD067A
:1033F0001092B70608958091CD06811128C00E94D1
:10340000550163E080E00E94FC0369E080918A0638
:1034100090918B060E94AE0361E181E00E94FC0363
:103420006BE18091D3069091D4060E94AE0381E0B7
:103430008093CD0620918A0630918B068091D30629
:103440009091D4068217930710F40C94A403089566
:103450008091FD06811108C068E873E081E00E9458
:10346000780181E08093FD0680913F068130C1F0B4
:1034700018F0823049F108958091EC05811134C033
:10348000CDDD63E180E00E94FC0369E180918A0662
:1034900090918B060E94AE0381E08093EC05089525
:1034A0008091EC05811120C0B9DD61E181E00E94CD
:1034B000FC036BE18091D3069091D4060E94AE0389
:1034C00081E08093EC0508958091F30581110CC093
:1034D000A5DD81E10E941D036BE1809118070E9428
:1034E000330381E08093F30508950E94640264CB66
:1034F0000895CF93DF93EC018091B606882309F4F9
:10350000AFC0CA30D10508F07DC0FE01E555FF4FC0
:10351000C9C280916206813409F0A2C00E9455019F
:103520000E947304C1E0D0E09BC080919506909109
:103530009606892B41F069E973E081E00E947801E9
:10354000C4E0D0E08DC080916206823451F481E005
:10355000809390061092EC051092F30510923F06AE
:1035600060C0C3DF7DC080916206813469F410922F
:10357000EC051092F30580913F068F5F833009F0D0
:103580006CC010923F064DC0833461F40E94550117
:1035900081E08093E406109290061092FD06C1E04F
:1035A000D0E05EC0843409F05BC043C08091620605
:1035B000813409F055C020918A0630918B068091A4
:1035C000D3069091D4068217930778F50E949F0343
:1035D000C5E0D0E045C080916206813409F040C06A
:1035E00024C080916206813401F56AEB73E081E0CA
:1035F0000E947801C7E0D0E033C080916206813438
:1036000079F51EC0C630D10581F024F4C330D10550
:1036100041F026C0C830D10561F0C930D10581F034
:103620001FC016DFC3E0D0E01BC0E5DEC6E0D0E07F
:1036300017C001DDC8DE0E945501C8E0D0E010C00F
:10364000C2DE81E08093B706C9E0D0E009C0C2E0E5
:10365000D0E006C0C0E0D0E003C080933F06E1CFD9
:10366000CE01DF91CF910895CF93DF93CDB7DEB731
:1036700060970FB6F894DEBF0FBECDBF8FEF84B951
:1036800015B890EF97B99FE098B981B912B88AB987
:103690001BB80E9460010E94920110926106CBDC6F
:1036A00092DE0F2EF9E1FF2EF02DE12CD12CC12C52
:1036B00051E040E030E020E0652F742F832F922FFF
:1036C0002F2D3E2D4D2D5C2DCBD161157105810522
:1036D000910549F05F2D4E2D3D2D2C2DF62EE72E18
:1036E000D82EC92EE9CF18EC00E0B12CA12C6F2DFB
:1036F0007E2D8D2D9C2D212F302F4B2D5A2DB0D16D
:10370000611571058105910549F0F12EE02EDB2C44
:10371000CA2C162F072FB82EA92EE9CF0F2EF4E6AC
:10372000FF2EF02DE12CD12CC12C612F702F8B2D71
:103730009A2D2F2D3E2D4D2D5C2D92D161157105A9
:103740008105910549F01F2D0E2DBD2CAC2CF62EB8
:10375000E72ED82EC92EE9CF14E600E0B12CA12C1B
:103760006F2D7E2D8D2D9C2D212F302F4B2D5A2DE1
:1037700077D1611571058105910549F0F12EE02E93
:10378000DB2CCA2C162F072FB82EA92EE9CF0F2E0F
:10379000F8EEFF2EF02D0F2EF3E0EF2EF02DD12CB2
:1037A000C12C612F702F8B2D9A2D2F2D3E2D4D2D3D
:1037B0005C2D56D1611571058105910549F01F2DCC
:1037C0000E2DBD2CAC2CF62EE72ED82EC92EE9CF0F
:1037D00016E900E0312C212C6F2D7E2D8D2D9C2D96
:1037E000212F302F432D522D3BD1611571058105BD
:1037F000910549F0F12EE02ED32CC22C162F072F65
:10380000382E292EE9CF69E170E080E090E0212F89
:10381000302F432D522D24D12D873E874F87588B33
:1038200068EC70E080E090E0212F302F432D522D86
:1038300017D129013A0164E670E080E090E0212F81
:10384000302F432D522D0CD169017A0168EE73E0BF
:1038500080E090E0212F302F432D522D01D14901DE
:103860005A0166E970E080E090E0212F302F432D6F
:10387000522DF6D08CE0E4EBF2E0DE0111960190DF
:103880000D928A95E1F710929F058D859E85AF85F3
:10389000B8898093A0059093A105A093A205B09349
:1038A000A3058093A4059093A505A093A605B093C6
:1038B000A70586EB97E19093A9058093A805109240
:1038C00094054092950550929605609297057092E6
:1038D00098054092990550929A0560929B057092C6
:1038E0009C058BEB98E190939E0580939D0510922B
:1038F0008905C0928A05D0928B05E0928C05F092E2
:103900008D05C0928E05D0928F05E0929005F092C1
:10391000910586E799E19093930580939205109223
:103920007E05C0927F05D0928005E0928105F092DD
:103930008205C0928305D0928405E0928505F092BD
:10394000860589E79AE19093880580938705109210
:1039500073058092740590927505A0927605B092D9
:1039600077058092780590927905A0927A05B092B9
:103970007B058EED92E090937D0580937C051092FF
:1039800068052093690530936A0540936B05509351
:103990006C0520936D0530936E0540936F05509331
:1039A000700583E298E190937205809371051093FE
:1039B000B0020093B1023092B2022092B30210938F
:1039C000AA050093AB053092AC052092AD050E948C
:1039D000D50000E010E0C12CD12C36C0F801EE0F6C
:1039E000FF1FA1E0B0E0AC0FBD1FEA0FFB1FE0809E
:1039F000F180F701458156816781708581819281CF
:103A0000A381B481481759076A077B0779F480813D
:103A10000184F285E02D992787FD90950995D701BE
:103A20008C93F7011582168217821086F701858123
:103A30009681A781B0850196A11DB11D85839683CE
:103A4000A783B0870F5F1F4F0630110538F28091B2
:103A5000AE058823E1F31092AE050C2D1D2DF4CF99
:103A6000A1E21A2EAA1BBB1BFD010DC0AA1FBB1F82
:103A7000EE1FFF1FA217B307E407F50720F0A21BF4
:103A8000B30BE40BF50B661F771F881F991F1A9461
:103A900069F760957095809590959B01AC01BD018B
:103AA000CF010895EE0FFF1F0590F491E02D0994CA
:103AB000A29FB001B39FC001A39F700D811D11246F
:103AC000911DB29F700D811D1124911D0895A8E1D3
:103AD000B0E042E050E006C00196272F12D010C09F
:103AE000DC01CB01FC01F999FECF06C0F2BDE1BDBE
:103AF000F89A319600B40D9241505040B8F70895AD
:103B0000262FF999FECF92BD81BDF89A019700B496
:103B1000021639F01FBA20BD0FB6F894FA9AF99A36
:083B20000FBE0895F894FFCFD9
:103B28000ED803F50316043704560473049204A848
:103B380004C704E904F9041A054A055605E1020216
:103B480003040506070B0C0D0E0F10191A1C1D1E79
:103B58001F200100E606024E06DB050305061112CA
:103B6800131B1D1F200D0003076E066207DA06DF10
:103B7800063506E705FE0664065807F905D5063E2C
:103B880007011E060102030405060E0F1018191F6F
:103B9800200500F4066D07080752066807037D062E
:103BA80027063A060106070E111314191B1C2006D6
:103BB80000F40540064E0720075307FE05022907B3
:103BC8004A0605060B0C0D0E121318190600970667
:103BD80003066906BE055C0648070386062507E353
:103BE80005030708090A0B0C0D0E0F101115013AF1
:103BF800070206070C14191A1E200700AC06B405A4
:103C0800AF055706EF06CE06C305010203070809EC
:103C18000F1011121314151C1D1E1F2003D2051C92
:103C2800079106030708090F10151C1D018C0601D2
:103C380005060A0B0C0D0E1318020022060C0602CC
:103C4800D605C8060102050607080F10131718192C
:103C58001E2003DF059C06CD0505060708090C1183
:103C680012131E1F200100450602BE063507020674
:103C7800070C1014191A1E04000D071906B806C3FC
:103C88000602A6062D070102030405090A0B0C0DFE
:103C98000E1112131720B9052B06B1065D07A106F0
:103CA80002730631070102030405060708090A0B17
:103CB8000C0D0E20C8058106770602F906EB0601F1
:103CC8000203050A0B0C1017181E1F2013074307C1
:103CD800010000009F05940589057E0573056805A8
:103CE800434F4E47524154554C4154494F4E53212E
:103CF8004E455720484947482053434F52452121B4
:103D0800004F7574726167656F75732047656D73D1
:103D18002000205475746F7269616C206F7665722B
:103D280021202028413D53746172742047616D65DC
:103D38002900202020202020706C617965722020C5
:103D480020203C5E763E20746F206E657874206D6E
:103D580061700020202020202032707473202020E1
:103D68002020202020202020203370747300202061
:103D7800202020203570747320202020202020202F
:103D88002020202031357074730020536B69702017
:103D98005475746F7269616C3F202028413D594504
:103DA800532C423D4E4F2900FFFFFFFFFF50415566
:103DB800534544FFFFFFFFFF00FFFFFF54494D45F8
:103DC800275320555021FFFFFFFFFFFFFFFFFFFF95
:103DD800FFFFFFFFFFFFFFFFFF0020596F757220F5
:103DE800616476656E747572652020202068617341
:103DF80020656E6465642E00202020507265737300
:103E0800204120746F20202020202020636F6E74B2
:103E1800696E756500FFFFFFFF434F4E54524F4CCC
:103E280053FFFFFFFFFFFFFFFFFFFFFFFFFFFFFF46
:103E3800FFFFFFFFFF00323A757020202020203559
:103E48003A646F776E20343A6C65667420202036A9
:103E58003A7269676874002020313A6C6F6F742F6A
:103E6800656E7465722020413A6E657874206D65C0
:103E780073736167650020202020423A7061757372
:103E8800652020202020202020433A756E7061751F
:103E98007365004E6F74653A2070617573652067AD
:103EA800616D6520746F20766965772073636F7222
:103EB800650020616E642072656D61696E696E6768
:103EC80020202074696D65002020443A717569745A
:103ED8002067616D6520202020287768656E207036
:103EE80061757365642900FFFFFFFFFF49434F4E6B
:103EF80053FFFFFFFFFFFFFFFFFFFFFFFFFFFFFF76
:103F0800FFFFFFFFFFFFFFFF00706C617965722004
:103F1800616E64203C5E763E0020DB202074656C78
:103F280065706F72746572732020312D74696D65C8
:103F380020757365206561636800FFFFFFFFFFFF61
:103F480047454D53FFFFFFFFFFFF636F6C6C6563D1
:103F58007420666F7220707473216A6577656C2CA3
:103F6800207465617264726F700063727973616C3A
:103F78002C2067656D007072657373204120746F23
:083F88002073746172740000E3
:00000001FF
